{
  "contractName": "QuantumOracleRegistry",
  "abi": [
    {
      "anonymous": false,
      "inputs": [
        {
          "indexed": true,
          "internalType": "string",
          "name": "sessionId",
          "type": "string"
        },
        {
          "indexed": false,
          "internalType": "bytes32",
          "name": "finalContextHash",
          "type": "bytes32"
        }
      ],
      "name": "MCPSessionCompleted",
      "type": "event"
    },
    {
      "anonymous": false,
      "inputs": [
        {
          "indexed": true,
          "internalType": "string",
          "name": "sessionId",
          "type": "string"
        },
        {
          "indexed": false,
          "internalType": "address",
          "name": "requester",
          "type": "address"
        },
        {
          "indexed": false,
          "internalType": "string",
          "name": "taskGoal",
          "type": "string"
        }
      ],
      "name": "MCPSessionCreated",
      "type": "event"
    },
    {
      "anonymous": false,
      "inputs": [
        {
          "indexed": true,
          "internalType": "string",
          "name": "sessionId",
          "type": "string"
        },
        {
          "indexed": false,
          "internalType": "uint256",
          "name": "timestamp",
          "type": "uint256"
        },
        {
          "indexed": false,
          "internalType": "uint256",
          "name": "randomNumber",
          "type": "uint256"
        },
        {
          "indexed": false,
          "internalType": "string",
          "name": "source",
          "type": "string"
        }
      ],
      "name": "QuantumRandomGenerated",
      "type": "event"
    },
    {
      "inputs": [
        {
          "internalType": "uint256",
          "name": "",
          "type": "uint256"
        }
      ],
      "name": "allSessionIds",
      "outputs": [
        {
          "internalType": "string",
          "name": "",
          "type": "string"
        }
      ],
      "stateMutability": "view",
      "type": "function",
      "constant": true
    },
    {
      "inputs": [
        {
          "internalType": "string",
          "name": "",
          "type": "string"
        }
      ],
      "name": "mcpSessions",
      "outputs": [
        {
          "internalType": "string",
          "name": "sessionId",
          "type": "string"
        },
        {
          "internalType": "address",
          "name": "requester",
          "type": "address"
        },
        {
          "internalType": "uint256",
          "name": "createdAt",
          "type": "uint256"
        },
        {
          "internalType": "string",
          "name": "taskGoal",
          "type": "string"
        },
        {
          "internalType": "bytes32",
          "name": "contextHash",
          "type": "bytes32"
        },
        {
          "internalType": "bool",
          "name": "isComplete",
          "type": "bool"
        }
      ],
      "stateMutability": "view",
      "type": "function",
      "constant": true
    },
    {
      "inputs": [
        {
          "internalType": "string",
          "name": "",
          "type": "string"
        },
        {
          "internalType": "uint256",
          "name": "",
          "type": "uint256"
        }
      ],
      "name": "quantumEvents",
      "outputs": [
        {
          "internalType": "string",
          "name": "sessionId",
          "type": "string"
        },
        {
          "internalType": "uint256",
          "name": "timestamp",
          "type": "uint256"
        },
        {
          "internalType": "uint256",
          "name": "randomNumber",
          "type": "uint256"
        },
        {
          "internalType": "string",
          "name": "source",
          "type": "string"
        },
        {
          "internalType": "bytes32",
          "name": "provenanceHash",
          "type": "bytes32"
        }
      ],
      "stateMutability": "view",
      "type": "function",
      "constant": true
    },
    {
      "inputs": [
        {
          "internalType": "string",
          "name": "sessionId",
          "type": "string"
        },
        {
          "internalType": "string",
          "name": "taskGoal",
          "type": "string"
        },
        {
          "internalType": "bytes32",
          "name": "contextHash",
          "type": "bytes32"
        }
      ],
      "name": "createMCPSession",
      "outputs": [],
      "stateMutability": "nonpayable",
      "type": "function"
    },
    {
      "inputs": [
        {
          "internalType": "string",
          "name": "sessionId",
          "type": "string"
        },
        {
          "internalType": "uint256",
          "name": "randomNumber",
          "type": "uint256"
        },
        {
          "internalType": "string",
          "name": "source",
          "type": "string"
        },
        {
          "internalType": "bytes32",
          "name": "provenanceHash",
          "type": "bytes32"
        }
      ],
      "name": "recordQuantumRandom",
      "outputs": [],
      "stateMutability": "nonpayable",
      "type": "function"
    },
    {
      "inputs": [
        {
          "internalType": "string",
          "name": "sessionId",
          "type": "string"
        },
        {
          "internalType": "bytes32",
          "name": "finalContextHash",
          "type": "bytes32"
        }
      ],
      "name": "completeMCPSession",
      "outputs": [],
      "stateMutability": "nonpayable",
      "type": "function"
    },
    {
      "inputs": [
        {
          "internalType": "string",
          "name": "sessionId",
          "type": "string"
        }
      ],
      "name": "getQuantumEventCount",
      "outputs": [
        {
          "internalType": "uint256",
          "name": "",
          "type": "uint256"
        }
      ],
      "stateMutability": "view",
      "type": "function",
      "constant": true
    },
    {
      "inputs": [],
      "name": "getSessionCount",
      "outputs": [
        {
          "internalType": "uint256",
          "name": "",
          "type": "uint256"
        }
      ],
      "stateMutability": "view",
      "type": "function",
      "constant": true
    }
  ],
  "bytecode": "0x608060405234801561000f575f80fd5b506115788061001d5f395ff3fe608060405234801561000f575f80fd5b5060043610610086575f3560e01c8063522f0aa511610059578063522f0aa51461012b5780636e6734bf1461015b578063bf67e73d14610179578063d942e881146101a957610086565b8063164851d21461008a57806336c11629146100a657806340e9b98c146100c25780634837bd67146100f6575b5f80fd5b6100a4600480360381019061009f9190610bfb565b6101c5565b005b6100c060048036038101906100bb9190610c88565b610345565b005b6100dc60048036038101906100d79190610d24565b6104b8565b6040516100ed959493929190610e16565b60405180910390f35b610110600480360381019061010b9190610e75565b610627565b60405161012296959493929190610f15565b60405180910390f35b61014560048036038101906101409190610f82565b6107ae565b6040516101529190610fad565b60405180910390f35b610163610854565b6040516101709190610fcd565b60405180910390f35b610193600480360381019061018e9190610e75565b610860565b6040516101a09190610fcd565b60405180910390f35b6101c360048036038101906101be9190610fe6565b610889565b005b5f6001836040516101d691906110a8565b90815260200160405180910390206002015411610228576040517f08c379a000000000000000000000000000000000000000000000000000000000815260040161021f90611108565b60405180910390fd5b60018260405161023891906110a8565b90815260200160405180910390206005015f9054906101000a900460ff1615610296576040517f08c379a000000000000000000000000000000000000000000000000000000000815260040161028d90611170565b60405180910390fd5b600180836040516102a791906110a8565b90815260200160405180910390206005015f6101000a81548160ff021916908315150217905550806001836040516102df91906110a8565b9081526020016040518091039020600401819055508160405161030291906110a8565b60405180910390207f1948706645a2530d2a184b69488cb0deb33a19a4bf1265926d826edc7744d39082604051610339919061118e565b60405180910390a25050565b5f60018560405161035691906110a8565b908152602001604051809103902060020154116103a8576040517f08c379a000000000000000000000000000000000000000000000000000000000815260040161039f90611108565b60405180910390fd5b5f6040518060a001604052808681526020014281526020018581526020018481526020018381525090505f856040516103e191906110a8565b908152602001604051809103902081908060018154018082558091505060019003905f5260205f2090600502015f909190919091505f820151815f01908161042991906113a1565b506020820151816001015560408201518160020155606082015181600301908161045391906113a1565b506080820151816004015550508460405161046e91906110a8565b60405180910390207fe55ed6048eb1e64dcdccc528d7fe5ca695e3244b334bf18250b2ff497ddade4f4286866040516104a993929190611470565b60405180910390a25050505050565b5f8280516020810182018051848252602083016020850120818352809550505050505081815481106104e8575f80fd5b905f5260205f2090600502015f9150915050805f018054610508906111d4565b80601f0160208091040260200160405190810160405280929190818152602001828054610534906111d4565b801561057f5780601f106105565761010080835404028352916020019161057f565b820191905f5260205f20905b81548152906001019060200180831161056257829003601f168201915b5050505050908060010154908060020154908060030180546105a0906111d4565b80601f01602080910402602001604051908101604052809291908181526020018280546105cc906111d4565b80156106175780601f106105ee57610100808354040283529160200191610617565b820191905f5260205f20905b8154815290600101906020018083116105fa57829003601f168201915b5050505050908060040154905085565b6001818051602081018201805184825260208301602085012081835280955050505050505f91509050805f01805461065e906111d4565b80601f016020809104026020016040519081016040528092919081815260200182805461068a906111d4565b80156106d55780601f106106ac576101008083540402835291602001916106d5565b820191905f5260205f20905b8154815290600101906020018083116106b857829003601f168201915b505050505090806001015f9054906101000a900473ffffffffffffffffffffffffffffffffffffffff1690806002015490806003018054610715906111d4565b80601f0160208091040260200160405190810160405280929190818152602001828054610741906111d4565b801561078c5780601f106107635761010080835404028352916020019161078c565b820191905f5260205f20905b81548152906001019060200180831161076f57829003601f168201915b505050505090806004015490806005015f9054906101000a900460ff16905086565b600281815481106107bd575f80fd5b905f5260205f20015f9150905080546107d5906111d4565b80601f0160208091040260200160405190810160405280929190818152602001828054610801906111d4565b801561084c5780601f106108235761010080835404028352916020019161084c565b820191905f5260205f20905b81548152906001019060200180831161082f57829003601f168201915b505050505081565b5f600280549050905090565b5f808260405161087091906110a8565b9081526020016040518091039020805490509050919050565b5f60018460405161089a91906110a8565b908152602001604051809103902060020154146108ec576040517f08c379a00000000000000000000000000000000000000000000000000000000081526004016108e3906114f6565b60405180910390fd5b6040518060c001604052808481526020013373ffffffffffffffffffffffffffffffffffffffff1681526020014281526020018381526020018281526020015f151581525060018460405161094191906110a8565b90815260200160405180910390205f820151815f01908161096291906113a1565b506020820151816001015f6101000a81548173ffffffffffffffffffffffffffffffffffffffff021916908373ffffffffffffffffffffffffffffffffffffffff1602179055506040820151816002015560608201518160030190816109c891906113a1565b506080820151816004015560a0820151816005015f6101000a81548160ff021916908315150217905550905050600283908060018154018082558091505060019003905f5260205f20015f909190919091509081610a2691906113a1565b5082604051610a3591906110a8565b60405180910390207fceea64aa932c02de5d15c886fa7a51a3ad3cf5edb0e1ed0c05df5c2b9bfa781a3384604051610a6e929190611514565b60405180910390a2505050565b5f604051905090565b5f80fd5b5f80fd5b5f80fd5b5f80fd5b5f601f19601f8301169050919050565b7f4e487b71000000000000000000000000000000000000000000000000000000005f52604160045260245ffd5b610ada82610a94565b810181811067ffffffffffffffff82111715610af957610af8610aa4565b5b80604052505050565b5f610b0b610a7b565b9050610b178282610ad1565b919050565b5f67ffffffffffffffff821115610b3657610b35610aa4565b5b610b3f82610a94565b9050602081019050919050565b828183375f83830152505050565b5f610b6c610b6784610b1c565b610b02565b905082815260208101848484011115610b8857610b87610a90565b5b610b93848285610b4c565b509392505050565b5f82601f830112610baf57610bae610a8c565b5b8135610bbf848260208601610b5a565b91505092915050565b5f819050919050565b610bda81610bc8565b8114610be4575f80fd5b50565b5f81359050610bf581610bd1565b92915050565b5f8060408385031215610c1157610c10610a84565b5b5f83013567ffffffffffffffff811115610c2e57610c2d610a88565b5b610c3a85828601610b9b565b9250506020610c4b85828601610be7565b9150509250929050565b5f819050919050565b610c6781610c55565b8114610c71575f80fd5b50565b5f81359050610c8281610c5e565b92915050565b5f805f8060808587031215610ca057610c9f610a84565b5b5f85013567ffffffffffffffff811115610cbd57610cbc610a88565b5b610cc987828801610b9b565b9450506020610cda87828801610c74565b935050604085013567ffffffffffffffff811115610cfb57610cfa610a88565b5b610d0787828801610b9b565b9250506060610d1887828801610be7565b91505092959194509250565b5f8060408385031215610d3a57610d39610a84565b5b5f83013567ffffffffffffffff811115610d5757610d56610a88565b5b610d6385828601610b9b565b9250506020610d7485828601610c74565b9150509250929050565b5f81519050919050565b5f82825260208201905092915050565b5f5b83811015610db5578082015181840152602081019050610d9a565b5f8484015250505050565b5f610dca82610d7e565b610dd48185610d88565b9350610de4818560208601610d98565b610ded81610a94565b840191505092915050565b610e0181610c55565b82525050565b610e1081610bc8565b82525050565b5f60a0820190508181035f830152610e2e8188610dc0565b9050610e3d6020830187610df8565b610e4a6040830186610df8565b8181036060830152610e5c8185610dc0565b9050610e6b6080830184610e07565b9695505050505050565b5f60208284031215610e8a57610e89610a84565b5b5f82013567ffffffffffffffff811115610ea757610ea6610a88565b5b610eb384828501610b9b565b91505092915050565b5f73ffffffffffffffffffffffffffffffffffffffff82169050919050565b5f610ee582610ebc565b9050919050565b610ef581610edb565b82525050565b5f8115159050919050565b610f0f81610efb565b82525050565b5f60c0820190508181035f830152610f2d8189610dc0565b9050610f3c6020830188610eec565b610f496040830187610df8565b8181036060830152610f5b8186610dc0565b9050610f6a6080830185610e07565b610f7760a0830184610f06565b979650505050505050565b5f60208284031215610f9757610f96610a84565b5b5f610fa484828501610c74565b91505092915050565b5f6020820190508181035f830152610fc58184610dc0565b905092915050565b5f602082019050610fe05f830184610df8565b92915050565b5f805f60608486031215610ffd57610ffc610a84565b5b5f84013567ffffffffffffffff81111561101a57611019610a88565b5b61102686828701610b9b565b935050602084013567ffffffffffffffff81111561104757611046610a88565b5b61105386828701610b9b565b925050604061106486828701610be7565b9150509250925092565b5f81905092915050565b5f61108282610d7e565b61108c818561106e565b935061109c818560208601610d98565b80840191505092915050565b5f6110b38284611078565b915081905092915050565b7f53657373696f6e20646f6573206e6f74206578697374000000000000000000005f82015250565b5f6110f2601683610d88565b91506110fd826110be565b602082019050919050565b5f6020820190508181035f83015261111f816110e6565b9050919050565b7f53657373696f6e20616c726561647920636f6d706c65746564000000000000005f82015250565b5f61115a601983610d88565b915061116582611126565b602082019050919050565b5f6020820190508181035f8301526111878161114e565b9050919050565b5f6020820190506111a15f830184610e07565b92915050565b7f4e487b71000000000000000000000000000000000000000000000000000000005f52602260045260245ffd5b5f60028204905060018216806111eb57607f821691505b6020821081036111fe576111fd6111a7565b5b50919050565b5f819050815f5260205f209050919050565b5f6020601f8301049050919050565b5f82821b905092915050565b5f600883026112607fffffffffffffffffffffffffffffffffffffffffffffffffffffffffffffffff82611225565b61126a8683611225565b95508019841693508086168417925050509392505050565b5f819050919050565b5f6112a56112a061129b84610c55565b611282565b610c55565b9050919050565b5f819050919050565b6112be8361128b565b6112d26112ca826112ac565b848454611231565b825550505050565b5f90565b6112e66112da565b6112f18184846112b5565b505050565b5b81811015611314576113095f826112de565b6001810190506112f7565b5050565b601f8211156113595761132a81611204565b61133384611216565b81016020851015611342578190505b61135661134e85611216565b8301826112f6565b50505b505050565b5f82821c905092915050565b5f6113795f198460080261135e565b1980831691505092915050565b5f611391838361136a565b9150826002028217905092915050565b6113aa82610d7e565b67ffffffffffffffff8111156113c3576113c2610aa4565b5b6113cd82546111d4565b6113d8828285611318565b5f60209050601f831160018114611409575f84156113f7578287015190505b6114018582611386565b865550611468565b601f19841661141786611204565b5f5b8281101561143e57848901518255600182019150602085019450602081019050611419565b8683101561145b5784890151611457601f89168261136a565b8355505b6001600288020188555050505b505050505050565b5f6060820190506114835f830186610df8565b6114906020830185610df8565b81810360408301526114a28184610dc0565b9050949350505050565b7f53657373696f6e20616c726561647920657869737473000000000000000000005f82015250565b5f6114e0601683610d88565b91506114eb826114ac565b602082019050919050565b5f6020820190508181035f83015261150d816114d4565b9050919050565b5f6040820190506115275f830185610eec565b81810360208301526115398184610dc0565b9050939250505056fea26469706673582212208a4750fafab26c29ebd205e63f6ad556ecad1e08fcce93d92efa062e63fa410c64736f6c63430008150033",
  "immutableReferences": {},
  "source": "// Solidity Smart Contract for Quantum-Aware AI Context Oracle\n// SPDX-License-Identifier: MIT\npragma solidity ^0.8.0;\n\ncontract QuantumOracleRegistry {\n    // Structure to store quantum random number generation events\n    struct QuantumEvent {\n        string sessionId;\n        uint256 timestamp;\n        uint256 randomNumber;\n        string source;\n        bytes32 provenanceHash;\n    }\n    \n    // Structure to store MCP session information\n    struct MCPSession {\n        string sessionId;\n        address requester;\n        uint256 createdAt;\n        string taskGoal;\n        bytes32 contextHash;\n        bool isComplete;\n    }\n    \n    // Mapping from session ID to quantum events\n    mapping(string => QuantumEvent[]) public quantumEvents;\n    \n    // Mapping from session ID to MCP session\n    mapping(string => MCPSession) public mcpSessions;\n    \n    // Array to store all session IDs\n    string[] public allSessionIds;\n    \n    // Event emitted when a new quantum random number is generated\n    event QuantumRandomGenerated(\n        string indexed sessionId,\n        uint256 timestamp,\n        uint256 randomNumber,\n        string source\n    );\n    \n    // Event emitted when a new MCP session is created\n    event MCPSessionCreated(\n        string indexed sessionId,\n        address requester,\n        string taskGoal\n    );\n    \n    // Event emitted when an MCP session is completed\n    event MCPSessionCompleted(\n        string indexed sessionId,\n        bytes32 finalContextHash\n    );\n    \n    /**\n     * Create a new MCP session\n     * @param sessionId Unique identifier for the session\n     * @param taskGoal Description of the task goal\n     * @param contextHash Hash of the initial MCP context\n     */\n    function createMCPSession(\n        string memory sessionId,\n        string memory taskGoal,\n        bytes32 contextHash\n    ) public {\n        // Ensure session doesn't already exist\n        require(mcpSessions[sessionId].createdAt == 0, \"Session already exists\");\n        \n        // Create new session\n        mcpSessions[sessionId] = MCPSession({\n            sessionId: sessionId,\n            requester: msg.sender,\n            createdAt: block.timestamp,\n            taskGoal: taskGoal,\n            contextHash: contextHash,\n            isComplete: false\n        });\n        \n        // Add to list of all sessions\n        allSessionIds.push(sessionId);\n        \n        // Emit event\n        emit MCPSessionCreated(sessionId, msg.sender, taskGoal);\n    }\n    \n    /**\n     * Record a quantum random number generation event\n     * @param sessionId Session ID this event belongs to\n     * @param randomNumber The generated random number\n     * @param source Source of the random number (e.g., \"quantum_simulator\")\n     * @param provenanceHash Hash of the provenance trail for verification\n     */\n    function recordQuantumRandom(\n        string memory sessionId,\n        uint256 randomNumber,\n        string memory source,\n        bytes32 provenanceHash\n    ) public {\n        // Ensure session exists\n        require(mcpSessions[sessionId].createdAt > 0, \"Session does not exist\");\n        \n        // Create new quantum event\n        QuantumEvent memory newEvent = QuantumEvent({\n            sessionId: sessionId,\n            timestamp: block.timestamp,\n            randomNumber: randomNumber,\n            source: source,\n            provenanceHash: provenanceHash\n        });\n        \n        // Add to events for this session\n        quantumEvents[sessionId].push(newEvent);\n        \n        // Emit event\n        emit QuantumRandomGenerated(sessionId, block.timestamp, randomNumber, source);\n    }\n    \n    /**\n     * Complete an MCP session\n     * @param sessionId Session ID to complete\n     * @param finalContextHash Hash of the final MCP context\n     */\n    function completeMCPSession(\n        string memory sessionId,\n        bytes32 finalContextHash\n    ) public {\n        // Ensure session exists and is not already complete\n        require(mcpSessions[sessionId].createdAt > 0, \"Session does not exist\");\n        require(!mcpSessions[sessionId].isComplete, \"Session already completed\");\n        \n        // Update session\n        mcpSessions[sessionId].isComplete = true;\n        mcpSessions[sessionId].contextHash = finalContextHash;\n        \n        // Emit event\n        emit MCPSessionCompleted(sessionId, finalContextHash);\n    }\n    \n    /**\n     * Get the number of quantum events for a session\n     * @param sessionId Session ID to query\n     * @return Number of quantum events\n     */\n    function getQuantumEventCount(string memory sessionId) public view returns (uint256) {\n        return quantumEvents[sessionId].length;\n    }\n    \n    /**\n     * Get the total number of sessions\n     * @return Number of sessions\n     */\n    function getSessionCount() public view returns (uint256) {\n        return allSessionIds.length;\n    }\n}\n",
  "sourcePath": "C:\\Users\\mrh94\\Desktop\\quantum_ai_oracle_project\\quantum_ai_oracle_project\\blockchain\\contracts\\QuantumOracleRegistry.sol",
  "compiler": {
    "name": "solc",
    "version": "0.8.21+commit.d9974bed.Emscripten.clang"
  },
  "schemaVersion": "3.4.16",
  "updatedAt": "2025-05-26T11:26:11.934Z",
  "networkType": "ethereum",
  "devdoc": {
    "kind": "dev",
    "methods": {
      "completeMCPSession(string,bytes32)": {
        "params": {
          "finalContextHash": "Hash of the final MCP context",
          "sessionId": "Session ID to complete"
        }
      },
      "createMCPSession(string,string,bytes32)": {
        "params": {
          "contextHash": "Hash of the initial MCP context",
          "sessionId": "Unique identifier for the session",
          "taskGoal": "Description of the task goal"
        }
      },
      "getQuantumEventCount(string)": {
        "params": {
          "sessionId": "Session ID to query"
        },
        "returns": {
          "_0": "Number of quantum events"
        }
      },
      "getSessionCount()": {
        "returns": {
          "_0": "Number of sessions"
        }
      },
      "recordQuantumRandom(string,uint256,string,bytes32)": {
        "params": {
          "provenanceHash": "Hash of the provenance trail for verification",
          "randomNumber": "The generated random number",
          "sessionId": "Session ID this event belongs to",
          "source": "Source of the random number (e.g., \"quantum_simulator\")"
        }
      }
    },
    "version": 1
  },
  "userdoc": {
    "kind": "user",
    "methods": {
      "completeMCPSession(string,bytes32)": {
        "notice": "Complete an MCP session"
      },
      "createMCPSession(string,string,bytes32)": {
        "notice": "Create a new MCP session"
      },
      "getQuantumEventCount(string)": {
        "notice": "Get the number of quantum events for a session"
      },
      "getSessionCount()": {
        "notice": "Get the total number of sessions"
      },
      "recordQuantumRandom(string,uint256,string,bytes32)": {
        "notice": "Record a quantum random number generation event"
      }
    },
    "version": 1
  }
}